{
  "transactions": [
    {
      "hash": "0x9ac228bb0b039b37af77e953f6811057d2ad09a9212463ac7471ba3bc8eed8f0",
      "transactionType": "CREATE",
      "contractName": "Counter",
      "contractAddress": "0x7E5dCd657F3F7d65A11C161ef23048ECa49Af1C0",
      "function": null,
      "arguments": null,
      "transaction": {
        "type": "0x02",
        "from": "0xf825b35b2394225ecf934c73d5377b31a4b588c2",
        "gas": "0x231c9",
        "value": "0x0",
        "data": "0x608060405234801561001057600080fd5b50610109806100206000396000f3fe6080604052348015600f57600080fd5b506004361060465760003560e01c80633fb5c1cb14604b5780638381f58a14605d5780638d7a72f3146077578063d09de08a14607f575b600080fd5b605b60563660046095565b600055565b005b606560005481565b60405190815260200160405180910390f35b606560015481565b605b600080549080608e8360ad565b9190505550565b60006020828403121560a657600080fd5b5035919050565b60006001820160cc57634e487b7160e01b600052601160045260246000fd5b506001019056fea264697066735822122027c396f0af051291d9f7e87850577496bd55059d08f758f0ab141549544bea3364736f6c63430008170033",
        "nonce": "0x0",
        "accessList": []
      },
      "additionalContracts": [],
      "isFixedGasLimit": false
    },
    {
      "hash": "0x7590d947838acaa9802442139d71e73134ca64fa169dfb6dfc0b8b272c53f114",
      "transactionType": "CALL",
      "contractName": "src/Counter.sol:Counter",
      "contractAddress": "0x7E5dCd657F3F7d65A11C161ef23048ECa49Af1C0",
      "function": "setNumber(uint256)",
      "arguments": [
        "123456"
      ],
      "transaction": {
        "type": "0x02",
        "from": "0xf825b35b2394225ecf934c73d5377b31a4b588c2",
        "to": "0x7e5dcd657f3f7d65a11c161ef23048eca49af1c0",
        "gas": "0xeacc",
        "value": "0x0",
        "data": "0x3fb5c1cb000000000000000000000000000000000000000000000000000000000001e240",
        "nonce": "0x1",
        "accessList": []
      },
      "additionalContracts": [],
      "isFixedGasLimit": false
    },
    {
      "hash": "0x33a2b547bd50f3669fb262ffaf3ef86fa657ae7a5071922f9879270cd39a27ba",
      "transactionType": "CALL",
      "contractName": "src/Counter.sol:Counter",
      "contractAddress": "0x7E5dCd657F3F7d65A11C161ef23048ECa49Af1C0",
      "function": "increment()",
      "arguments": [],
      "transaction": {
        "type": "0x02",
        "from": "0xf825b35b2394225ecf934c73d5377b31a4b588c2",
        "to": "0x7e5dcd657f3f7d65a11c161ef23048eca49af1c0",
        "gas": "0x8e0a",
        "value": "0x0",
        "data": "0xd09de08a",
        "nonce": "0x2",
        "accessList": []
      },
      "additionalContracts": [],
      "isFixedGasLimit": false
    }
  ],
  "receipts": [],
  "libraries": [],
  "pending": [
    "0x9ac228bb0b039b37af77e953f6811057d2ad09a9212463ac7471ba3bc8eed8f0",
    "0x7590d947838acaa9802442139d71e73134ca64fa169dfb6dfc0b8b272c53f114",
    "0x33a2b547bd50f3669fb262ffaf3ef86fa657ae7a5071922f9879270cd39a27ba"
  ],
  "returns": {},
  "timestamp": 1713637335,
  "chain": 11155111,
  "multi": false,
  "commit": null
}